{
  "_format": "hh-sol-artifact-1",
  "contractName": "ShadowLensAgentConsumer",
  "sourceName": "contracts/ShadowLensAgentConsumer.sol",
  "abi": [
    {
      "inputs": [],
      "stateMutability": "nonpayable",
      "type": "constructor"
    },
    {
      "anonymous": false,
      "inputs": [
        {
          "indexed": true,
          "internalType": "bytes32",
          "name": "requestId",
          "type": "bytes32"
        },
        {
          "indexed": false,
          "internalType": "enum ShadowLensAgentConsumer.RiskLevel",
          "name": "riskLevel",
          "type": "uint8"
        },
        {
          "indexed": false,
          "internalType": "string",
          "name": "engagementHealth",
          "type": "string"
        },
        {
          "indexed": false,
          "internalType": "string",
          "name": "postingPattern",
          "type": "string"
        },
        {
          "indexed": false,
          "internalType": "string",
          "name": "contentRisk",
          "type": "string"
        },
        {
          "indexed": false,
          "internalType": "string",
          "name": "suggestedFixes",
          "type": "string"
        }
      ],
      "name": "AnalysisCompleted",
      "type": "event"
    },
    {
      "anonymous": false,
      "inputs": [
        {
          "indexed": true,
          "internalType": "bytes32",
          "name": "requestId",
          "type": "bytes32"
        },
        {
          "indexed": true,
          "internalType": "address",
          "name": "requester",
          "type": "address"
        },
        {
          "indexed": false,
          "internalType": "string",
          "name": "handle",
          "type": "string"
        },
        {
          "indexed": false,
          "internalType": "bool",
          "name": "weeklyMonitor",
          "type": "bool"
        }
      ],
      "name": "AnalysisRequested",
      "type": "event"
    },
    {
      "anonymous": false,
      "inputs": [
        {
          "indexed": true,
          "internalType": "address",
          "name": "oracle",
          "type": "address"
        },
        {
          "indexed": false,
          "internalType": "bool",
          "name": "enabled",
          "type": "bool"
        }
      ],
      "name": "OracleUpdated",
      "type": "event"
    },
    {
      "anonymous": false,
      "inputs": [
        {
          "indexed": true,
          "internalType": "address",
          "name": "precompile",
          "type": "address"
        },
        {
          "indexed": false,
          "internalType": "bytes",
          "name": "input",
          "type": "bytes"
        },
        {
          "indexed": false,
          "internalType": "bytes",
          "name": "output",
          "type": "bytes"
        }
      ],
      "name": "PrecompileSubmitted",
      "type": "event"
    },
    {
      "anonymous": false,
      "inputs": [
        {
          "indexed": true,
          "internalType": "bytes32",
          "name": "requestId",
          "type": "bytes32"
        },
        {
          "indexed": false,
          "internalType": "uint256",
          "name": "cadenceSeconds",
          "type": "uint256"
        }
      ],
      "name": "WeeklyMonitorScheduled",
      "type": "event"
    },
    {
      "inputs": [],
      "name": "ASYNC_DELIVERY",
      "outputs": [
        {
          "internalType": "address",
          "name": "",
          "type": "address"
        }
      ],
      "stateMutability": "view",
      "type": "function"
    },
    {
      "inputs": [],
      "name": "HTTP_PRECOMPILE",
      "outputs": [
        {
          "internalType": "address",
          "name": "",
          "type": "address"
        }
      ],
      "stateMutability": "view",
      "type": "function"
    },
    {
      "inputs": [],
      "name": "SOVEREIGN_AGENT",
      "outputs": [
        {
          "internalType": "address",
          "name": "",
          "type": "address"
        }
      ],
      "stateMutability": "view",
      "type": "function"
    },
    {
      "inputs": [
        {
          "internalType": "bytes32",
          "name": "",
          "type": "bytes32"
        }
      ],
      "name": "analyses",
      "outputs": [
        {
          "internalType": "bytes32",
          "name": "requestId",
          "type": "bytes32"
        },
        {
          "internalType": "address",
          "name": "requester",
          "type": "address"
        },
        {
          "internalType": "string",
          "name": "handle",
          "type": "string"
        },
        {
          "internalType": "enum ShadowLensAgentConsumer.RiskLevel",
          "name": "riskLevel",
          "type": "uint8"
        },
        {
          "internalType": "string",
          "name": "engagementHealth",
          "type": "string"
        },
        {
          "internalType": "string",
          "name": "postingPattern",
          "type": "string"
        },
        {
          "internalType": "string",
          "name": "contentRisk",
          "type": "string"
        },
        {
          "internalType": "string",
          "name": "suggestedFixes",
          "type": "string"
        },
        {
          "internalType": "bool",
          "name": "weeklyMonitor",
          "type": "bool"
        },
        {
          "internalType": "enum ShadowLensAgentConsumer.Status",
          "name": "status",
          "type": "uint8"
        },
        {
          "internalType": "uint256",
          "name": "createdAt",
          "type": "uint256"
        },
        {
          "internalType": "uint256",
          "name": "updatedAt",
          "type": "uint256"
        }
      ],
      "stateMutability": "view",
      "type": "function"
    },
    {
      "inputs": [
        {
          "internalType": "address",
          "name": "",
          "type": "address"
        }
      ],
      "name": "authorizedOracles",
      "outputs": [
        {
          "internalType": "bool",
          "name": "",
          "type": "bool"
        }
      ],
      "stateMutability": "view",
      "type": "function"
    },
    {
      "inputs": [
        {
          "internalType": "bytes32",
          "name": "requestId",
          "type": "bytes32"
        },
        {
          "internalType": "enum ShadowLensAgentConsumer.RiskLevel",
          "name": "riskLevel",
          "type": "uint8"
        },
        {
          "internalType": "string",
          "name": "engagementHealth",
          "type": "string"
        },
        {
          "internalType": "string",
          "name": "postingPattern",
          "type": "string"
        },
        {
          "internalType": "string",
          "name": "contentRisk",
          "type": "string"
        },
        {
          "internalType": "string",
          "name": "suggestedFixes",
          "type": "string"
        }
      ],
      "name": "fulfillAnalysis",
      "outputs": [],
      "stateMutability": "nonpayable",
      "type": "function"
    },
    {
      "inputs": [
        {
          "internalType": "bytes32",
          "name": "",
          "type": "bytes32"
        }
      ],
      "name": "monitorCadenceSeconds",
      "outputs": [
        {
          "internalType": "uint256",
          "name": "",
          "type": "uint256"
        }
      ],
      "stateMutability": "view",
      "type": "function"
    },
    {
      "inputs": [
        {
          "internalType": "bytes32",
          "name": "jobId",
          "type": "bytes32"
        },
        {
          "internalType": "bytes",
          "name": "result",
          "type": "bytes"
        }
      ],
      "name": "onSovereignAgentResult",
      "outputs": [],
      "stateMutability": "nonpayable",
      "type": "function"
    },
    {
      "inputs": [],
      "name": "owner",
      "outputs": [
        {
          "internalType": "address",
          "name": "",
          "type": "address"
        }
      ],
      "stateMutability": "view",
      "type": "function"
    },
    {
      "inputs": [
        {
          "internalType": "bytes",
          "name": "precompileInput",
          "type": "bytes"
        },
        {
          "internalType": "string",
          "name": "handle",
          "type": "string"
        },
        {
          "internalType": "bool",
          "name": "weeklyMonitor",
          "type": "bool"
        }
      ],
      "name": "requestAnalysisWithAgent",
      "outputs": [
        {
          "internalType": "bytes",
          "name": "",
          "type": "bytes"
        }
      ],
      "stateMutability": "nonpayable",
      "type": "function"
    },
    {
      "inputs": [
        {
          "internalType": "bytes",
          "name": "httpInput",
          "type": "bytes"
        },
        {
          "internalType": "string",
          "name": "handle",
          "type": "string"
        },
        {
          "internalType": "bool",
          "name": "weeklyMonitor",
          "type": "bool"
        }
      ],
      "name": "requestAnalysisWithHttp",
      "outputs": [
        {
          "internalType": "bytes",
          "name": "",
          "type": "bytes"
        }
      ],
      "stateMutability": "nonpayable",
      "type": "function"
    },
    {
      "inputs": [
        {
          "internalType": "bytes32",
          "name": "requestId",
          "type": "bytes32"
        },
        {
          "internalType": "uint256",
          "name": "cadenceSeconds",
          "type": "uint256"
        }
      ],
      "name": "scheduleWeeklyMonitor",
      "outputs": [],
      "stateMutability": "nonpayable",
      "type": "function"
    },
    {
      "inputs": [
        {
          "internalType": "address",
          "name": "oracle",
          "type": "address"
        },
        {
          "internalType": "bool",
          "name": "enabled",
          "type": "bool"
        }
      ],
      "name": "setOracle",
      "outputs": [],
      "stateMutability": "nonpayable",
      "type": "function"
    }
  ],
  "bytecode": "0x608060405234801561001057600080fd5b50336000806101000a81548173ffffffffffffffffffffffffffffffffffffffff021916908373ffffffffffffffffffffffffffffffffffffffff160217905550612c20806100606000396000f3fe608060405234801561001057600080fd5b50600436106100cf5760003560e01c80638ca120551161008c578063aef1c92c11610066578063aef1c92c1461021d578063af7e1d1a1461024d578063c256e0261461027d578063fe0217f614610299576100cf565b80638ca12055146101c55780638da5cb5b146101e157806397f77261146101ff576100cf565b806324d23c76146100d457806361c992a31461010f578063653608431461013f57806375cd8b0c1461015b57806375d5766214610177578063857de48114610195575b600080fd5b6100ee60048036038101906100e991906117b9565b6102b7565b6040516101069c9b9a999897969594939291906119b9565b60405180910390f35b61012960048036038101906101249190611ac2565b610606565b6040516101369190611aef565b60405180910390f35b61015960048036038101906101549190611b36565b610626565b005b61017560048036038101906101709190611c00565b61075d565b005b61017f610a12565b60405161018c9190611d10565b60405180910390f35b6101af60048036038101906101aa9190611d81565b610a18565b6040516101bc9190611e6b565b60405180910390f35b6101df60048036038101906101da9190611e8d565b610f1e565b005b6101e961116f565b6040516101f69190611d10565b60405180910390f35b610207611193565b6040516102149190611d10565b60405180910390f35b61023760048036038101906102329190611d81565b611199565b6040516102449190611e6b565b60405180910390f35b610267600480360381019061026291906117b9565b6115b2565b6040516102749190611eed565b60405180910390f35b61029760048036038101906102929190611f34565b6115ca565b005b6102a1611761565b6040516102ae9190611d10565b60405180910390f35b60016020528060005260406000206000915090508060000154908060010160009054906101000a900473ffffffffffffffffffffffffffffffffffffffff169080600201805461030690611fa3565b80601f016020809104026020016040519081016040528092919081815260200182805461033290611fa3565b801561037f5780601f106103545761010080835404028352916020019161037f565b820191906000526020600020905b81548152906001019060200180831161036257829003601f168201915b5050505050908060030160009054906101000a900460ff16908060040180546103a790611fa3565b80601f01602080910402602001604051908101604052809291908181526020018280546103d390611fa3565b80156104205780601f106103f557610100808354040283529160200191610420565b820191906000526020600020905b81548152906001019060200180831161040357829003601f168201915b50505050509080600501805461043590611fa3565b80601f016020809104026020016040519081016040528092919081815260200182805461046190611fa3565b80156104ae5780601f10610483576101008083540402835291602001916104ae565b820191906000526020600020905b81548152906001019060200180831161049157829003601f168201915b5050505050908060060180546104c390611fa3565b80601f01602080910402602001604051908101604052809291908181526020018280546104ef90611fa3565b801561053c5780601f106105115761010080835404028352916020019161053c565b820191906000526020600020905b81548152906001019060200180831161051f57829003601f168201915b50505050509080600701805461055190611fa3565b80601f016020809104026020016040519081016040528092919081815260200182805461057d90611fa3565b80156105ca5780601f1061059f576101008083540402835291602001916105ca565b820191906000526020600020905b8154815290600101906020018083116105ad57829003601f168201915b5050505050908060080160009054906101000a900460ff16908060080160019054906101000a900460ff169080600901549080600a015490508c565b60026020528060005260406000206000915054906101000a900460ff1681565b60008054906101000a900473ffffffffffffffffffffffffffffffffffffffff1673ffffffffffffffffffffffffffffffffffffffff163373ffffffffffffffffffffffffffffffffffffffff16146106b4576040517f08c379a00000000000000000000000000000000000000000000000000000000081526004016106ab90612020565b60405180910390fd5b80600260008473ffffffffffffffffffffffffffffffffffffffff1673ffffffffffffffffffffffffffffffffffffffff16815260200190815260200160002060006101000a81548160ff0219169083151502179055508173ffffffffffffffffffffffffffffffffffffffff167f94c9cbe1d9aa7af08484f82ab0179d6db973a391236668c34192d954ff32c06c826040516107519190611aef565b60405180910390a25050565b600260003373ffffffffffffffffffffffffffffffffffffffff1673ffffffffffffffffffffffffffffffffffffffff16815260200190815260200160002060009054906101000a900460ff166107e9576040517f08c379a00000000000000000000000000000000000000000000000000000000081526004016107e09061208c565b60405180910390fd5b6000600160008c81526020019081526020016000209050600073ffffffffffffffffffffffffffffffffffffffff168160010160009054906101000a900473ffffffffffffffffffffffffffffffffffffffff1673ffffffffffffffffffffffffffffffffffffffff1603610893576040517f08c379a000000000000000000000000000000000000000000000000000000000815260040161088a906120f8565b60405180910390fd5b600060018111156108a7576108a66118c6565b5b8160080160019054906101000a900460ff1660018111156108cb576108ca6118c6565b5b1461090b576040517f08c379a000000000000000000000000000000000000000000000000000000000815260040161090290612164565b60405180910390fd5b898160030160006101000a81548160ff02191690836003811115610932576109316118c6565b5b0217905550888882600401918261094a92919061236a565b50868682600501918261095e92919061236a565b50848482600601918261097292919061236a565b50828282600701918261098692919061236a565b5060018160080160016101000a81548160ff021916908360018111156109af576109ae6118c6565b5b02179055504281600a01819055508a7f504d7738b7e405bbd90761cfa36837688e58840f602fe3f90244c8de19c1f3028b8b8b8b8b8b8b8b8b6040516109fd99989796959493929190612476565b60405180910390a25050505050505050505050565b61080181565b6060600033858542604051602001610a339493929190612586565b6040516020818303038152906040528051906020012090506040518061018001604052808281526020013373ffffffffffffffffffffffffffffffffffffffff16815260200186868080601f016020809104026020016040519081016040528093929190818152602001838380828437600081840152601f19601f82011690508083019250505050505050815260200160006003811115610ad757610ad66118c6565b5b815260200160405180602001604052806000815250815260200160405180602001604052806000815250815260200160405180602001604052806000815250815260200188888080601f016020809104026020016040519081016040528093929190818152602001838380828437600081840152601f19601f820116905080830192505050505050508152602001841515815260200160006001811115610b8157610b806118c6565b5b815260200142815260200142815250600160008381526020019081526020016000206000820151816000015560208201518160010160006101000a81548173ffffffffffffffffffffffffffffffffffffffff021916908373ffffffffffffffffffffffffffffffffffffffff1602179055506040820151816002019081610c0991906125c1565b5060608201518160030160006101000a81548160ff02191690836003811115610c3557610c346118c6565b5b02179055506080820151816004019081610c4f91906125c1565b5060a0820151816005019081610c6591906125c1565b5060c0820151816006019081610c7b91906125c1565b5060e0820151816007019081610c9191906125c1565b506101008201518160080160006101000a81548160ff0219169083151502179055506101208201518160080160016101000a81548160ff02191690836001811115610cdf57610cde6118c6565b5b0217905550610140820151816009015561016082015181600a01559050503373ffffffffffffffffffffffffffffffffffffffff16817fcbd067317fcfd3c31e06a3bcfb9ef09b589f02cfdedd11b1fa059781cb28268d878787604051610d4893929190612693565b60405180910390a360008061080173ffffffffffffffffffffffffffffffffffffffff168989604051610d7c9291906126f5565b6000604051808303816000865af19150503d8060008114610db9576040519150601f19603f3d011682016040523d82523d6000602084013e610dbe565b606091505b509150915081610e03576040517f08c379a0000000000000000000000000000000000000000000000000000000008152600401610dfa9061275a565b60405180910390fd5b600180600085815260200190815260200160002060080160016101000a81548160ff02191690836001811115610e3c57610e3b6118c6565b5b02179055504260016000858152602001908152602001600020600a018190555080600160008581526020019081526020016000206007019081610e7f91906125c1565b5061080173ffffffffffffffffffffffffffffffffffffffff167fa2323315670242bf5e596dbf564314a7ba44e1b0400d72ad69dbcff46e9f10b68a8a84604051610ecc939291906127a7565b60405180910390a2827f504d7738b7e405bbd90761cfa36837688e58840f602fe3f90244c8de19c1f302600083604051610f07929190612806565b60405180910390a280935050505095945050505050565b735a16214ff555848411544b005f7ac063742f39f673ffffffffffffffffffffffffffffffffffffffff163373ffffffffffffffffffffffffffffffffffffffff1614610fa0576040517f08c379a0000000000000000000000000000000000000000000000000000000008152600401610f97906128bb565b60405180910390fd5b6000600160008581526020019081526020016000209050600073ffffffffffffffffffffffffffffffffffffffff168160010160009054906101000a900473ffffffffffffffffffffffffffffffffffffffff1673ffffffffffffffffffffffffffffffffffffffff160361104a576040517f08c379a000000000000000000000000000000000000000000000000000000000815260040161104190612927565b60405180910390fd5b6000600181111561105e5761105d6118c6565b5b8160080160019054906101000a900460ff166001811115611082576110816118c6565b5b146110c2576040517f08c379a00000000000000000000000000000000000000000000000000000000081526004016110b990612993565b60405180910390fd5b60018160080160016101000a81548160ff021916908360018111156110ea576110e96118c6565b5b02179055504281600a0181905550828282600701918261110b92919061236a565b50837f504d7738b7e405bbd90761cfa36837688e58840f602fe3f90244c8de19c1f3028260030160009054906101000a900460ff1683600401846005018560060186600701604051611161959493929190612a37565b60405180910390a250505050565b60008054906101000a900473ffffffffffffffffffffffffffffffffffffffff1681565b61080c81565b60606000338585426040516020016111b49493929190612586565b6040516020818303038152906040528051906020012090506040518061018001604052808281526020013373ffffffffffffffffffffffffffffffffffffffff16815260200186868080601f016020809104026020016040519081016040528093929190818152602001838380828437600081840152601f19601f82011690508083019250505050505050815260200160006003811115611258576112576118c6565b5b81526020016040518060200160405280600081525081526020016040518060200160405280600081525081526020016040518060200160405280600081525081526020016040518060200160405280600081525081526020018415158152602001600060018111156112cd576112cc6118c6565b5b815260200142815260200142815250600160008381526020019081526020016000206000820151816000015560208201518160010160006101000a81548173ffffffffffffffffffffffffffffffffffffffff021916908373ffffffffffffffffffffffffffffffffffffffff160217905550604082015181600201908161135591906125c1565b5060608201518160030160006101000a81548160ff02191690836003811115611381576113806118c6565b5b0217905550608082015181600401908161139b91906125c1565b5060a08201518160050190816113b191906125c1565b5060c08201518160060190816113c791906125c1565b5060e08201518160070190816113dd91906125c1565b506101008201518160080160006101000a81548160ff0219169083151502179055506101208201518160080160016101000a81548160ff0219169083600181111561142b5761142a6118c6565b5b0217905550610140820151816009015561016082015181600a01559050503373ffffffffffffffffffffffffffffffffffffffff16817fcbd067317fcfd3c31e06a3bcfb9ef09b589f02cfdedd11b1fa059781cb28268d87878760405161149493929190612693565b60405180910390a360008061080c73ffffffffffffffffffffffffffffffffffffffff1689896040516114c89291906126f5565b6000604051808303816000865af19150503d8060008114611505576040519150601f19603f3d011682016040523d82523d6000602084013e61150a565b606091505b50915091508161154f576040517f08c379a000000000000000000000000000000000000000000000000000000000815260040161154690612af2565b60405180910390fd5b61080c73ffffffffffffffffffffffffffffffffffffffff167fa2323315670242bf5e596dbf564314a7ba44e1b0400d72ad69dbcff46e9f10b68a8a8460405161159b939291906127a7565b60405180910390a280935050505095945050505050565b60036020528060005260406000206000915090505481565b60006001600084815260200190815260200160002090503373ffffffffffffffffffffffffffffffffffffffff168160010160009054906101000a900473ffffffffffffffffffffffffffffffffffffffff1673ffffffffffffffffffffffffffffffffffffffff16148061168a575060008054906101000a900473ffffffffffffffffffffffffffffffffffffffff1673ffffffffffffffffffffffffffffffffffffffff163373ffffffffffffffffffffffffffffffffffffffff16145b6116c9576040517f08c379a00000000000000000000000000000000000000000000000000000000081526004016116c090612b5e565b60405180910390fd5b6000821161170c576040517f08c379a000000000000000000000000000000000000000000000000000000000815260040161170390612bca565b60405180910390fd5b816003600085815260200190815260200160002081905550827f8eb77a8c0d67487064a370a62704823bbac10a53db1345d9280e48fc01de7be5836040516117549190611eed565b60405180910390a2505050565b735a16214ff555848411544b005f7ac063742f39f681565b600080fd5b600080fd5b6000819050919050565b61179681611783565b81146117a157600080fd5b50565b6000813590506117b38161178d565b92915050565b6000602082840312156117cf576117ce611779565b5b60006117dd848285016117a4565b91505092915050565b6117ef81611783565b82525050565b600073ffffffffffffffffffffffffffffffffffffffff82169050919050565b6000611820826117f5565b9050919050565b61183081611815565b82525050565b600081519050919050565b600082825260208201905092915050565b60005b83811015611870578082015181840152602081019050611855565b60008484015250505050565b6000601f19601f8301169050919050565b600061189882611836565b6118a28185611841565b93506118b2818560208601611852565b6118bb8161187c565b840191505092915050565b7f4e487b7100000000000000000000000000000000000000000000000000000000600052602160045260246000fd5b60048110611906576119056118c6565b5b50565b6000819050611917826118f5565b919050565b600061192782611909565b9050919050565b6119378161191c565b82525050565b60008115159050919050565b6119528161193d565b82525050565b60028110611969576119686118c6565b5b50565b600081905061197a82611958565b919050565b600061198a8261196c565b9050919050565b61199a8161197f565b82525050565b6000819050919050565b6119b3816119a0565b82525050565b6000610180820190506119cf600083018f6117e6565b6119dc602083018e611827565b81810360408301526119ee818d61188d565b90506119fd606083018c61192e565b8181036080830152611a0f818b61188d565b905081810360a0830152611a23818a61188d565b905081810360c0830152611a37818961188d565b905081810360e0830152611a4b818861188d565b9050611a5b610100830187611949565b611a69610120830186611991565b611a776101408301856119aa565b611a856101608301846119aa565b9d9c50505050505050505050505050565b611a9f81611815565b8114611aaa57600080fd5b50565b600081359050611abc81611a96565b92915050565b600060208284031215611ad857611ad7611779565b5b6000611ae684828501611aad565b91505092915050565b6000602082019050611b046000830184611949565b92915050565b611b138161193d565b8114611b1e57600080fd5b50565b600081359050611b3081611b0a565b92915050565b60008060408385031215611b4d57611b4c611779565b5b6000611b5b85828601611aad565b9250506020611b6c85828601611b21565b9150509250929050565b60048110611b8357600080fd5b50565b600081359050611b9581611b76565b92915050565b600080fd5b600080fd5b600080fd5b60008083601f840112611bc057611bbf611b9b565b5b8235905067ffffffffffffffff811115611bdd57611bdc611ba0565b5b602083019150836001820283011115611bf957611bf8611ba5565b5b9250929050565b60008060008060008060008060008060c08b8d031215611c2357611c22611779565b5b6000611c318d828e016117a4565b9a50506020611c428d828e01611b86565b99505060408b013567ffffffffffffffff811115611c6357611c6261177e565b5b611c6f8d828e01611baa565b985098505060608b013567ffffffffffffffff811115611c9257611c9161177e565b5b611c9e8d828e01611baa565b965096505060808b013567ffffffffffffffff811115611cc157611cc061177e565b5b611ccd8d828e01611baa565b945094505060a08b013567ffffffffffffffff811115611cf057611cef61177e565b5b611cfc8d828e01611baa565b92509250509295989b9194979a5092959850565b6000602082019050611d256000830184611827565b92915050565b60008083601f840112611d4157611d40611b9b565b5b8235905067ffffffffffffffff811115611d5e57611d5d611ba0565b5b602083019150836001820283011115611d7a57611d79611ba5565b5b9250929050565b600080600080600060608688031215611d9d57611d9c611779565b5b600086013567ffffffffffffffff811115611dbb57611dba61177e565b5b611dc788828901611d2b565b9550955050602086013567ffffffffffffffff811115611dea57611de961177e565b5b611df688828901611baa565b93509350506040611e0988828901611b21565b9150509295509295909350565b600081519050919050565b600082825260208201905092915050565b6000611e3d82611e16565b611e478185611e21565b9350611e57818560208601611852565b611e608161187c565b840191505092915050565b60006020820190508181036000830152611e858184611e32565b905092915050565b600080600060408486031215611ea657611ea5611779565b5b6000611eb4868287016117a4565b935050602084013567ffffffffffffffff811115611ed557611ed461177e565b5b611ee186828701611d2b565b92509250509250925092565b6000602082019050611f0260008301846119aa565b92915050565b611f11816119a0565b8114611f1c57600080fd5b50565b600081359050611f2e81611f08565b92915050565b60008060408385031215611f4b57611f4a611779565b5b6000611f59858286016117a4565b9250506020611f6a85828601611f1f565b9150509250929050565b7f4e487b7100000000000000000000000000000000000000000000000000000000600052602260045260246000fd5b60006002820490506001821680611fbb57607f821691505b602082108103611fce57611fcd611f74565b5b50919050565b7f4e6f74206f776e65720000000000000000000000000000000000000000000000600082015250565b600061200a600983611841565b915061201582611fd4565b602082019050919050565b6000602082019050818103600083015261203981611ffd565b9050919050565b7f4e6f7420617574686f72697a6564206f7261636c650000000000000000000000600082015250565b6000612076601583611841565b915061208182612040565b602082019050919050565b600060208201905081810360008301526120a581612069565b9050919050565b7f756e6b6e6f776e20726571756573744964000000000000000000000000000000600082015250565b60006120e2601183611841565b91506120ed826120ac565b602082019050919050565b60006020820190508181036000830152612111816120d5565b9050919050565b7f616c726561647920636f6d706c65746564000000000000000000000000000000600082015250565b600061214e601183611841565b915061215982612118565b602082019050919050565b6000602082019050818103600083015261217d81612141565b9050919050565b600082905092915050565b7f4e487b7100000000000000000000000000000000000000000000000000000000600052604160045260246000fd5b60008190508160005260206000209050919050565b60006020601f8301049050919050565b600082821b905092915050565b6000600883026122207fffffffffffffffffffffffffffffffffffffffffffffffffffffffffffffffff826121e3565b61222a86836121e3565b95508019841693508086168417925050509392505050565b6000819050919050565b600061226761226261225d846119a0565b612242565b6119a0565b9050919050565b6000819050919050565b6122818361224c565b61229561228d8261226e565b8484546121f0565b825550505050565b600090565b6122aa61229d565b6122b5818484612278565b505050565b5b818110156122d9576122ce6000826122a2565b6001810190506122bb565b5050565b601f82111561231e576122ef816121be565b6122f8846121d3565b81016020851015612307578190505b61231b612313856121d3565b8301826122ba565b50505b505050565b600082821c905092915050565b600061234160001984600802612323565b1980831691505092915050565b600061235a8383612330565b9150826002028217905092915050565b6123748383612184565b67ffffffffffffffff81111561238d5761238c61218f565b5b6123978254611fa3565b6123a28282856122dd565b6000601f8311600181146123d157600084156123bf578287013590505b6123c9858261234e565b865550612431565b601f1984166123df866121be565b60005b82811015612407578489013582556001820191506020850194506020810190506123e2565b868310156124245784890135612420601f891682612330565b8355505b6001600288020188555050505b50505050505050565b82818337600083830152505050565b60006124558385611841565b935061246283858461243a565b61246b8361187c565b840190509392505050565b600060a08201905061248b600083018c61192e565b818103602083015261249e818a8c612449565b905081810360408301526124b381888a612449565b905081810360608301526124c8818688612449565b905081810360808301526124dd818486612449565b90509a9950505050505050505050565b60008160601b9050919050565b6000612505826124ed565b9050919050565b6000612517826124fa565b9050919050565b61252f61252a82611815565b61250c565b82525050565b600081905092915050565b600061254c8385612535565b935061255983858461243a565b82840190509392505050565b6000819050919050565b61258061257b826119a0565b612565565b82525050565b6000612592828761251e565b6014820191506125a3828587612540565b91506125af828461256f565b60208201915081905095945050505050565b6125ca82611836565b67ffffffffffffffff8111156125e3576125e261218f565b5b6125ed8254611fa3565b6125f88282856122dd565b600060209050601f83116001811461262b5760008415612619578287015190505b612623858261234e565b86555061268b565b601f198416612639866121be565b60005b828110156126615784890151825560018201915060208501945060208101905061263c565b8683101561267e578489015161267a601f891682612330565b8355505b6001600288020188555050505b505050505050565b600060408201905081810360008301526126ae818587612449565b90506126bd6020830184611949565b949350505050565b600081905092915050565b60006126dc83856126c5565b93506126e983858461243a565b82840190509392505050565b60006127028284866126d0565b91508190509392505050565b7f4854545020707265636f6d70696c652063616c6c206661696c65640000000000600082015250565b6000612744601b83611841565b915061274f8261270e565b602082019050919050565b6000602082019050818103600083015261277381612737565b9050919050565b60006127868385611e21565b935061279383858461243a565b61279c8361187c565b840190509392505050565b600060408201905081810360008301526127c281858761277a565b905081810360208301526127d68184611e32565b9050949350505050565b50565b60006127f0600083611841565b91506127fb826127e0565b600082019050919050565b600060a08201905061281b600083018561192e565b818103602083015261282c816127e3565b9050818103604083015261283f816127e3565b90508181036060830152612852816127e3565b90508181036080830152612866818461188d565b90509392505050565b7f756e617574686f72697a65642063616c6c6261636b2073656e64657200000000600082015250565b60006128a5601c83611841565b91506128b08261286f565b602082019050919050565b600060208201905081810360008301526128d481612898565b9050919050565b7f756e6b6e6f776e206a6f62496400000000000000000000000000000000000000600082015250565b6000612911600d83611841565b915061291c826128db565b602082019050919050565b6000602082019050818103600083015261294081612904565b9050919050565b7f6a6f6220616c726561647920636f6d706c657465640000000000000000000000600082015250565b600061297d601583611841565b915061298882612947565b602082019050919050565b600060208201905081810360008301526129ac81612970565b9050919050565b600081546129c081611fa3565b6129ca8186611841565b945060018216600081146129e557600181146129fb57612a2e565b60ff198316865281151560200286019350612a2e565b612a04856121be565b60005b83811015612a2657815481890152600182019150602081019050612a07565b808801955050505b50505092915050565b600060a082019050612a4c600083018861192e565b8181036020830152612a5e81876129b3565b90508181036040830152612a7281866129b3565b90508181036060830152612a8681856129b3565b90508181036080830152612a9a81846129b3565b90509695505050505050565b7f536f7665726569676e206167656e742063616c6c206661696c65640000000000600082015250565b6000612adc601b83611841565b9150612ae782612aa6565b602082019050919050565b60006020820190508181036000830152612b0b81612acf565b9050919050565b7f756e617574686f72697a65640000000000000000000000000000000000000000600082015250565b6000612b48600c83611841565b9150612b5382612b12565b602082019050919050565b60006020820190508181036000830152612b7781612b3b565b9050919050565b7f636164656e6365206d75737420626520706f7369746976650000000000000000600082015250565b6000612bb4601883611841565b9150612bbf82612b7e565b602082019050919050565b60006020820190508181036000830152612be381612ba7565b905091905056fea2646970667358221220cfe650e377a179fca0d119f6be73b1f599e5531d87a0206f7150fec1aaf55b6564736f6c63430008180033",
  "linkReferences": {},
  "deployedLinkReferences": {}
}