{
  "_format": "hh-sol-artifact-1",
  "contractName": "ShadowLensProtocol",
  "sourceName": "contracts/ShadowLensProtocol.sol",
  "abi": [
    {
      "inputs": [
        {
          "internalType": "address",
          "name": "_oracle",
          "type": "address"
        }
      ],
      "stateMutability": "nonpayable",
      "type": "constructor"
    },
    {
      "anonymous": false,
      "inputs": [
        {
          "indexed": true,
          "internalType": "bytes32",
          "name": "requestId",
          "type": "bytes32"
        },
        {
          "indexed": false,
          "internalType": "uint256",
          "name": "score",
          "type": "uint256"
        },
        {
          "indexed": false,
          "internalType": "string",
          "name": "reason",
          "type": "string"
        }
      ],
      "name": "AnalysisFulfilled",
      "type": "event"
    },
    {
      "anonymous": false,
      "inputs": [
        {
          "indexed": true,
          "internalType": "bytes32",
          "name": "requestId",
          "type": "bytes32"
        },
        {
          "indexed": true,
          "internalType": "address",
          "name": "requester",
          "type": "address"
        },
        {
          "indexed": false,
          "internalType": "string",
          "name": "handle",
          "type": "string"
        }
      ],
      "name": "AnalysisRequested",
      "type": "event"
    },
    {
      "inputs": [
        {
          "internalType": "bytes32",
          "name": "",
          "type": "bytes32"
        }
      ],
      "name": "analyses",
      "outputs": [
        {
          "internalType": "bytes32",
          "name": "requestId",
          "type": "bytes32"
        },
        {
          "internalType": "address",
          "name": "requester",
          "type": "address"
        },
        {
          "internalType": "string",
          "name": "handle",
          "type": "string"
        },
        {
          "internalType": "uint256",
          "name": "score",
          "type": "uint256"
        },
        {
          "internalType": "string",
          "name": "reason",
          "type": "string"
        },
        {
          "internalType": "bool",
          "name": "fulfilled",
          "type": "bool"
        }
      ],
      "stateMutability": "view",
      "type": "function"
    },
    {
      "inputs": [
        {
          "internalType": "bytes32",
          "name": "requestId",
          "type": "bytes32"
        },
        {
          "internalType": "uint256",
          "name": "score",
          "type": "uint256"
        },
        {
          "internalType": "string",
          "name": "reason",
          "type": "string"
        }
      ],
      "name": "fulfillAnalysis",
      "outputs": [],
      "stateMutability": "nonpayable",
      "type": "function"
    },
    {
      "inputs": [
        {
          "internalType": "bytes32",
          "name": "requestId",
          "type": "bytes32"
        }
      ],
      "name": "getAnalysis",
      "outputs": [
        {
          "components": [
            {
              "internalType": "bytes32",
              "name": "requestId",
              "type": "bytes32"
            },
            {
              "internalType": "address",
              "name": "requester",
              "type": "address"
            },
            {
              "internalType": "string",
              "name": "handle",
              "type": "string"
            },
            {
              "internalType": "uint256",
              "name": "score",
              "type": "uint256"
            },
            {
              "internalType": "string",
              "name": "reason",
              "type": "string"
            },
            {
              "internalType": "bool",
              "name": "fulfilled",
              "type": "bool"
            }
          ],
          "internalType": "struct ShadowLensProtocol.Analysis",
          "name": "",
          "type": "tuple"
        }
      ],
      "stateMutability": "view",
      "type": "function"
    },
    {
      "inputs": [],
      "name": "oracle",
      "outputs": [
        {
          "internalType": "address",
          "name": "",
          "type": "address"
        }
      ],
      "stateMutability": "view",
      "type": "function"
    },
    {
      "inputs": [
        {
          "internalType": "string",
          "name": "handle",
          "type": "string"
        }
      ],
      "name": "requestAnalysis",
      "outputs": [],
      "stateMutability": "nonpayable",
      "type": "function"
    },
    {
      "inputs": [],
      "name": "requestCount",
      "outputs": [
        {
          "internalType": "uint256",
          "name": "",
          "type": "uint256"
        }
      ],
      "stateMutability": "view",
      "type": "function"
    }
  ],
  "bytecode": "0x60a06040523480156200001157600080fd5b5060405162001553380380620015538339818101604052810190620000379190620000e4565b8073ffffffffffffffffffffffffffffffffffffffff1660808173ffffffffffffffffffffffffffffffffffffffff168152505060006001819055505062000116565b600080fd5b600073ffffffffffffffffffffffffffffffffffffffff82169050919050565b6000620000ac826200007f565b9050919050565b620000be816200009f565b8114620000ca57600080fd5b50565b600081519050620000de81620000b3565b92915050565b600060208284031215620000fd57620000fc6200007a565b5b60006200010d84828501620000cd565b91505092915050565b60805161141a6200013960003960008181610142015261063e015261141a6000f3fe608060405234801561001057600080fd5b50600436106100625760003560e01c806322a718041461006757806324d23c7614610083578063586b0855146100b85780635badbe4c146100d45780637dc0d1d0146100f2578063d0906d7c14610110575b600080fd5b610081600480360381019061007c9190610961565b610140565b005b61009d600480360381019061009891906109d5565b6102c4565b6040516100af96959493929190610b0c565b60405180910390f35b6100d260048036038101906100cd9190610b7b565b61043d565b005b6100dc610636565b6040516100e99190610bc8565b60405180910390f35b6100fa61063c565b6040516101079190610be3565b60405180910390f35b61012a600480360381019061012591906109d5565b610660565b6040516101379190610d14565b60405180910390f35b7f000000000000000000000000000000000000000000000000000000000000000073ffffffffffffffffffffffffffffffffffffffff163373ffffffffffffffffffffffffffffffffffffffff16146101ce576040517f08c379a00000000000000000000000000000000000000000000000000000000081526004016101c590610d82565b60405180910390fd5b60008085815260200190815260200160002060050160009054906101000a900460ff1615610231576040517f08c379a000000000000000000000000000000000000000000000000000000000815260040161022890610dee565b60405180910390fd5b600080600086815260200190815260200160002090508381600301819055508282826004019182610263929190611054565b5060018160050160006101000a81548160ff021916908315150217905550847f952aa806a9c2c7ba51e687a6b0b003ae39bfd2a658575f820301f730bc8a65128585856040516102b593929190611160565b60405180910390a25050505050565b60006020528060005260406000206000915090508060000154908060010160009054906101000a900473ffffffffffffffffffffffffffffffffffffffff169080600201805461031390610e77565b80601f016020809104026020016040519081016040528092919081815260200182805461033f90610e77565b801561038c5780601f106103615761010080835404028352916020019161038c565b820191906000526020600020905b81548152906001019060200180831161036f57829003601f168201915b5050505050908060030154908060040180546103a790610e77565b80601f01602080910402602001604051908101604052809291908181526020018280546103d390610e77565b80156104205780601f106103f557610100808354040283529160200191610420565b820191906000526020600020905b81548152906001019060200180831161040357829003601f168201915b5050505050908060050160009054906101000a900460ff16905086565b60016000815480929190610450906111c1565b91905055506000338383426001546040516020016104729594939291906112a2565b6040516020818303038152906040528051906020012090506040518060c001604052808281526020013373ffffffffffffffffffffffffffffffffffffffff16815260200184848080601f016020809104026020016040519081016040528093929190818152602001838380828437600081840152601f19601f82011690508083019250505050505050815260200160008152602001604051806020016040528060008152508152602001600015158152506000808381526020019081526020016000206000820151816000015560208201518160010160006101000a81548173ffffffffffffffffffffffffffffffffffffffff021916908373ffffffffffffffffffffffffffffffffffffffff160217905550604082015181600201908161059c91906112ee565b506060820151816003015560808201518160040190816105bc91906112ee565b5060a08201518160050160006101000a81548160ff0219169083151502179055509050503373ffffffffffffffffffffffffffffffffffffffff16817f155ee70960814bfb2cdbc4f409775606a93395a3d542838117770a8fee7bf48c85856040516106299291906113c0565b60405180910390a3505050565b60015481565b7f000000000000000000000000000000000000000000000000000000000000000081565b610668610835565b6000808381526020019081526020016000206040518060c0016040529081600082015481526020016001820160009054906101000a900473ffffffffffffffffffffffffffffffffffffffff1673ffffffffffffffffffffffffffffffffffffffff1673ffffffffffffffffffffffffffffffffffffffff1681526020016002820180546106f590610e77565b80601f016020809104026020016040519081016040528092919081815260200182805461072190610e77565b801561076e5780601f106107435761010080835404028352916020019161076e565b820191906000526020600020905b81548152906001019060200180831161075157829003601f168201915b505050505081526020016003820154815260200160048201805461079190610e77565b80601f01602080910402602001604051908101604052809291908181526020018280546107bd90610e77565b801561080a5780601f106107df5761010080835404028352916020019161080a565b820191906000526020600020905b8154815290600101906020018083116107ed57829003601f168201915b505050505081526020016005820160009054906101000a900460ff1615151515815250509050919050565b6040518060c0016040528060008019168152602001600073ffffffffffffffffffffffffffffffffffffffff1681526020016060815260200160008152602001606081526020016000151581525090565b600080fd5b600080fd5b6000819050919050565b6108a381610890565b81146108ae57600080fd5b50565b6000813590506108c08161089a565b92915050565b6000819050919050565b6108d9816108c6565b81146108e457600080fd5b50565b6000813590506108f6816108d0565b92915050565b600080fd5b600080fd5b600080fd5b60008083601f840112610921576109206108fc565b5b8235905067ffffffffffffffff81111561093e5761093d610901565b5b60208301915083600182028301111561095a57610959610906565b5b9250929050565b6000806000806060858703121561097b5761097a610886565b5b6000610989878288016108b1565b945050602061099a878288016108e7565b935050604085013567ffffffffffffffff8111156109bb576109ba61088b565b5b6109c78782880161090b565b925092505092959194509250565b6000602082840312156109eb576109ea610886565b5b60006109f9848285016108b1565b91505092915050565b610a0b81610890565b82525050565b600073ffffffffffffffffffffffffffffffffffffffff82169050919050565b6000610a3c82610a11565b9050919050565b610a4c81610a31565b82525050565b600081519050919050565b600082825260208201905092915050565b60005b83811015610a8c578082015181840152602081019050610a71565b60008484015250505050565b6000601f19601f8301169050919050565b6000610ab482610a52565b610abe8185610a5d565b9350610ace818560208601610a6e565b610ad781610a98565b840191505092915050565b610aeb816108c6565b82525050565b60008115159050919050565b610b0681610af1565b82525050565b600060c082019050610b216000830189610a02565b610b2e6020830188610a43565b8181036040830152610b408187610aa9565b9050610b4f6060830186610ae2565b8181036080830152610b618185610aa9565b9050610b7060a0830184610afd565b979650505050505050565b60008060208385031215610b9257610b91610886565b5b600083013567ffffffffffffffff811115610bb057610baf61088b565b5b610bbc8582860161090b565b92509250509250929050565b6000602082019050610bdd6000830184610ae2565b92915050565b6000602082019050610bf86000830184610a43565b92915050565b610c0781610890565b82525050565b610c1681610a31565b82525050565b600082825260208201905092915050565b6000610c3882610a52565b610c428185610c1c565b9350610c52818560208601610a6e565b610c5b81610a98565b840191505092915050565b610c6f816108c6565b82525050565b610c7e81610af1565b82525050565b600060c083016000830151610c9c6000860182610bfe565b506020830151610caf6020860182610c0d565b5060408301518482036040860152610cc78282610c2d565b9150506060830151610cdc6060860182610c66565b5060808301518482036080860152610cf48282610c2d565b91505060a0830151610d0960a0860182610c75565b508091505092915050565b60006020820190508181036000830152610d2e8184610c84565b905092915050565b7f4f6e6c79206f7261636c652063616e2066756c66696c6c000000000000000000600082015250565b6000610d6c601783610a5d565b9150610d7782610d36565b602082019050919050565b60006020820190508181036000830152610d9b81610d5f565b9050919050565b7f416c72656164792066756c66696c6c6564000000000000000000000000000000600082015250565b6000610dd8601183610a5d565b9150610de382610da2565b602082019050919050565b60006020820190508181036000830152610e0781610dcb565b9050919050565b600082905092915050565b7f4e487b7100000000000000000000000000000000000000000000000000000000600052604160045260246000fd5b7f4e487b7100000000000000000000000000000000000000000000000000000000600052602260045260246000fd5b60006002820490506001821680610e8f57607f821691505b602082108103610ea257610ea1610e48565b5b50919050565b60008190508160005260206000209050919050565b60006020601f8301049050919050565b600082821b905092915050565b600060088302610f0a7fffffffffffffffffffffffffffffffffffffffffffffffffffffffffffffffff82610ecd565b610f148683610ecd565b95508019841693508086168417925050509392505050565b6000819050919050565b6000610f51610f4c610f47846108c6565b610f2c565b6108c6565b9050919050565b6000819050919050565b610f6b83610f36565b610f7f610f7782610f58565b848454610eda565b825550505050565b600090565b610f94610f87565b610f9f818484610f62565b505050565b5b81811015610fc357610fb8600082610f8c565b600181019050610fa5565b5050565b601f82111561100857610fd981610ea8565b610fe284610ebd565b81016020851015610ff1578190505b611005610ffd85610ebd565b830182610fa4565b50505b505050565b600082821c905092915050565b600061102b6000198460080261100d565b1980831691505092915050565b6000611044838361101a565b9150826002028217905092915050565b61105e8383610e0e565b67ffffffffffffffff81111561107757611076610e19565b5b6110818254610e77565b61108c828285610fc7565b6000601f8311600181146110bb57600084156110a9578287013590505b6110b38582611038565b86555061111b565b601f1984166110c986610ea8565b60005b828110156110f1578489013582556001820191506020850194506020810190506110cc565b8683101561110e578489013561110a601f89168261101a565b8355505b6001600288020188555050505b50505050505050565b82818337600083830152505050565b600061113f8385610a5d565b935061114c838584611124565b61115583610a98565b840190509392505050565b60006040820190506111756000830186610ae2565b8181036020830152611188818486611133565b9050949350505050565b7f4e487b7100000000000000000000000000000000000000000000000000000000600052601160045260246000fd5b60006111cc826108c6565b91507fffffffffffffffffffffffffffffffffffffffffffffffffffffffffffffffff82036111fe576111fd611192565b5b600182019050919050565b60008160601b9050919050565b600061122182611209565b9050919050565b600061123382611216565b9050919050565b61124b61124682610a31565b611228565b82525050565b600081905092915050565b60006112688385611251565b9350611275838584611124565b82840190509392505050565b6000819050919050565b61129c611297826108c6565b611281565b82525050565b60006112ae828861123a565b6014820191506112bf82868861125c565b91506112cb828561128b565b6020820191506112db828461128b565b6020820191508190509695505050505050565b6112f782610a52565b67ffffffffffffffff8111156113105761130f610e19565b5b61131a8254610e77565b611325828285610fc7565b600060209050601f8311600181146113585760008415611346578287015190505b6113508582611038565b8655506113b8565b601f19841661136686610ea8565b60005b8281101561138e57848901518255600182019150602085019450602081019050611369565b868310156113ab57848901516113a7601f89168261101a565b8355505b6001600288020188555050505b505050505050565b600060208201905081810360008301526113db818486611133565b9050939250505056fea26469706673582212203bcec08878f7a53ffc859a2c0210e81ab002dd064f453b4049800ce419672b3f64736f6c63430008180033",
  "linkReferences": {},
  "deployedLinkReferences": {}
}